{
  "contractName": "Proposal",
  "abi": [
    {
      "constant": true,
      "inputs": [
        {
          "name": "",
          "type": "uint256"
        }
      ],
      "name": "proposals",
      "outputs": [
        {
          "name": "title",
          "type": "string"
        },
        {
          "name": "content",
          "type": "string"
        },
        {
          "name": "status",
          "type": "uint256"
        }
      ],
      "payable": false,
      "stateMutability": "view",
      "type": "function"
    },
    {
      "constant": true,
      "inputs": [
        {
          "name": "",
          "type": "address"
        }
      ],
      "name": "partyOf",
      "outputs": [
        {
          "name": "",
          "type": "uint256"
        }
      ],
      "payable": false,
      "stateMutability": "view",
      "type": "function"
    },
    {
      "constant": true,
      "inputs": [
        {
          "name": "",
          "type": "address"
        }
      ],
      "name": "balanceOf",
      "outputs": [
        {
          "name": "",
          "type": "uint256"
        }
      ],
      "payable": false,
      "stateMutability": "view",
      "type": "function"
    },
    {
      "constant": true,
      "inputs": [
        {
          "name": "",
          "type": "address"
        }
      ],
      "name": "usernames",
      "outputs": [
        {
          "name": "",
          "type": "string"
        }
      ],
      "payable": false,
      "stateMutability": "view",
      "type": "function"
    },
    {
      "constant": false,
      "inputs": [
        {
          "name": "_party",
          "type": "uint256"
        },
        {
          "name": "_username",
          "type": "string"
        }
      ],
      "name": "register",
      "outputs": [],
      "payable": false,
      "stateMutability": "nonpayable",
      "type": "function"
    },
    {
      "constant": true,
      "inputs": [],
      "name": "getProposalsCount",
      "outputs": [
        {
          "name": "",
          "type": "uint256"
        }
      ],
      "payable": false,
      "stateMutability": "view",
      "type": "function"
    },
    {
      "constant": false,
      "inputs": [
        {
          "name": "_title",
          "type": "string"
        },
        {
          "name": "_content",
          "type": "string"
        }
      ],
      "name": "create",
      "outputs": [],
      "payable": false,
      "stateMutability": "nonpayable",
      "type": "function"
    },
    {
      "constant": false,
      "inputs": [
        {
          "name": "_id",
          "type": "uint256"
        },
        {
          "name": "_content",
          "type": "string"
        }
      ],
      "name": "approve",
      "outputs": [],
      "payable": false,
      "stateMutability": "nonpayable",
      "type": "function"
    },
    {
      "constant": false,
      "inputs": [
        {
          "name": "_id",
          "type": "uint256"
        },
        {
          "name": "_content",
          "type": "string"
        }
      ],
      "name": "disapprove",
      "outputs": [],
      "payable": false,
      "stateMutability": "nonpayable",
      "type": "function"
    }
  ],
  "bytecode": "0x608060405234801561001057600080fd5b50610fe1806100206000396000f300608060405260043610610099576000357c0100000000000000000000000000000000000000000000000000000000900463ffffffff168063013cf08b1461009e578063198e2b8a146101b75780631b76dd7c146102665780632cea2d3b146102d957806370a082311461033057806372405ab01461038757806398e527d3146103fa578063a00fd3c814610425578063ee91877c14610498575b600080fd5b3480156100aa57600080fd5b506100c960048036038101908080359060200190929190505050610554565b604051808060200180602001848152602001838103835286818151815260200191508051906020019080838360005b838110156101135780820151818401526020810190506100f8565b50505050905090810190601f1680156101405780820380516001836020036101000a031916815260200191505b50838103825285818151815260200191508051906020019080838360005b8381101561017957808201518184015260208101905061015e565b50505050905090810190601f1680156101a65780820380516001836020036101000a031916815260200191505b509550505050505060405180910390f35b3480156101c357600080fd5b50610264600480360381019080803590602001908201803590602001908080601f0160208091040260200160405190810160405280939291908181526020018383808284378201915050505050509192919290803590602001908201803590602001908080601f01602080910402602001604051908101604052809392919081815260200183838082843782019150505050505091929192905050506106bd565b005b34801561027257600080fd5b506102d760048036038101908080359060200190929190803590602001908201803590602001908080601f01602080910402602001604051908101604052809392919081815260200183838082843782019150505050505091929192905050506107ec565b005b3480156102e557600080fd5b5061031a600480360381019080803573ffffffffffffffffffffffffffffffffffffffff1690602001909291905050506109d8565b6040518082815260200191505060405180910390f35b34801561033c57600080fd5b50610371600480360381019080803573ffffffffffffffffffffffffffffffffffffffff1690602001909291905050506109f0565b6040518082815260200191505060405180910390f35b34801561039357600080fd5b506103f860048036038101908080359060200190929190803590602001908201803590602001908080601f0160208091040260200160405190810160405280939291908181526020018383808284378201915050505050509192919290505050610a08565b005b34801561040657600080fd5b5061040f610d12565b6040518082815260200191505060405180910390f35b34801561043157600080fd5b5061049660048036038101908080359060200190929190803590602001908201803590602001908080601f0160208091040260200160405190810160405280939291908181526020018383808284378201915050505050509192919290505050610d1f565b005b3480156104a457600080fd5b506104d9600480360381019080803573ffffffffffffffffffffffffffffffffffffffff169060200190929190505050610de0565b6040518080602001828103825283818151815260200191508051906020019080838360005b838110156105195780820151818401526020810190506104fe565b50505050905090810190601f1680156105465780820380516001836020036101000a031916815260200191505b509250505060405180910390f35b60038181548110151561056357fe5b9060005260206000209060030201600091509050806000018054600181600116156101000203166002900480601f01602080910402602001604051908101604052809291908181526020018280546001816001161561010002031660029004801561060f5780601f106105e45761010080835404028352916020019161060f565b820191906000526020600020905b8154815290600101906020018083116105f257829003601f168201915b505050505090806001018054600181600116156101000203166002900480601f0160208091040260200160405190810160405280929190818152602001828054600181600116156101000203166002900480156106ad5780601f10610682576101008083540402835291602001916106ad565b820191906000526020600020905b81548152906001019060200180831161069057829003601f168201915b5050505050908060020154905083565b60018060003373ffffffffffffffffffffffffffffffffffffffff1673ffffffffffffffffffffffffffffffffffffffff1681526020019081526020016000205414151561070a57600080fd5b60036060604051908101604052808481526020018381526020016001815250908060018154018082558091505090600182039060005260206000209060030201600090919290919091506000820151816000019080519060200190610770929190610e90565b50602082015181600101908051906020019061078d929190610e90565b506040820151816002015550505060016000803373ffffffffffffffffffffffffffffffffffffffff1673ffffffffffffffffffffffffffffffffffffffff168152602001908152602001600020600082825401925050819055505050565b60016003838154811015156107fd57fe5b906000526020600020906003020160020154141561088a576002600160003373ffffffffffffffffffffffffffffffffffffffff1673ffffffffffffffffffffffffffffffffffffffff1681526020019081526020016000205414151561086357600080fd5b600060038381548110151561087457fe5b9060005260206000209060030201600201819055505b600260038381548110151561089b57fe5b90600052602060002090600302016002015414806108d85750600380838154811015156108c457fe5b906000526020600020906003020160020154145b15610952576003600160003373ffffffffffffffffffffffffffffffffffffffff1673ffffffffffffffffffffffffffffffffffffffff1681526020019081526020016000205414151561092b57600080fd5b600160038381548110151561093c57fe5b9060005260206000209060030201600201819055505b8060038381548110151561096257fe5b90600052602060002090600302016001019080519060200190610986929190610f10565b5060016000803373ffffffffffffffffffffffffffffffffffffffff1673ffffffffffffffffffffffffffffffffffffffff168152602001908152602001600020600082825403925050819055505050565b60016020528060005260406000206000915090505481565b60006020528060005260406000206000915090505481565b6000600383815481101515610a1957fe5b9060005260206000209060030201600201541415610aa95760018060003373ffffffffffffffffffffffffffffffffffffffff1673ffffffffffffffffffffffffffffffffffffffff16815260200190815260200160002054141515610a7e57600080fd5b6001600383815481101515610a8f57fe5b906000526020600020906003020160020181905550610c8c565b6001600383815481101515610aba57fe5b9060005260206000209060030201600201541415610b4b576002600160003373ffffffffffffffffffffffffffffffffffffffff1673ffffffffffffffffffffffffffffffffffffffff16815260200190815260200160002054141515610b2057600080fd5b6002600383815481101515610b3157fe5b906000526020600020906003020160020181905550610c8b565b6002600383815481101515610b5c57fe5b9060005260206000209060030201600201541415610bec576003600160003373ffffffffffffffffffffffffffffffffffffffff1673ffffffffffffffffffffffffffffffffffffffff16815260200190815260200160002054141515610bc257600080fd5b60038083815481101515610bd257fe5b906000526020600020906003020160020181905550610c8a565b60038083815481101515610bfc57fe5b9060005260206000209060030201600201541415610c89576003600160003373ffffffffffffffffffffffffffffffffffffffff1673ffffffffffffffffffffffffffffffffffffffff16815260200190815260200160002054141515610c6257600080fd5b6004600383815481101515610c7357fe5b9060005260206000209060030201600201819055505b5b5b5b80600383815481101515610c9c57fe5b90600052602060002090600302016001019080519060200190610cc0929190610f10565b5060016000803373ffffffffffffffffffffffffffffffffffffffff1673ffffffffffffffffffffffffffffffffffffffff168152602001908152602001600020600082825401925050819055505050565b6000600380549050905090565b6001821480610d2e5750600282145b80610d395750600382145b1515610d4457600080fd5b81600160003373ffffffffffffffffffffffffffffffffffffffff1673ffffffffffffffffffffffffffffffffffffffff1681526020019081526020016000208190555080600260003373ffffffffffffffffffffffffffffffffffffffff1673ffffffffffffffffffffffffffffffffffffffff1681526020019081526020016000209080519060200190610ddb929190610f10565b505050565b60026020528060005260406000206000915090508054600181600116156101000203166002900480601f016020809104026020016040519081016040528092919081815260200182805460018160011615610100020316600290048015610e885780601f10610e5d57610100808354040283529160200191610e88565b820191906000526020600020905b815481529060010190602001808311610e6b57829003601f168201915b505050505081565b828054600181600116156101000203166002900490600052602060002090601f016020900481019282601f10610ed157805160ff1916838001178555610eff565b82800160010185558215610eff579182015b82811115610efe578251825591602001919060010190610ee3565b5b509050610f0c9190610f90565b5090565b828054600181600116156101000203166002900490600052602060002090601f016020900481019282601f10610f5157805160ff1916838001178555610f7f565b82800160010185558215610f7f579182015b82811115610f7e578251825591602001919060010190610f63565b5b509050610f8c9190610f90565b5090565b610fb291905b80821115610fae576000816000905550600101610f96565b5090565b905600a165627a7a7230582002fa2167c328157253356c3c6f58b0ecf5cca367bae51bb0b8a02a8b1ca30ea10029",
  "source": "pragma solidity ^0.4.24;\r\n\r\ncontract Proposal {\r\n    \r\n    mapping(address => uint) public balanceOf;\r\n    mapping(address => uint) public partyOf;\r\n    mapping(address => string) public usernames;\r\n    \r\n    /*\r\n    partyOf:\r\n    1: A\r\n    2: B\r\n    3: C\r\n    */\r\n\r\n    struct proposal {\r\n        string title;\r\n        string content;\r\n        uint status;\r\n    }\r\n    \r\n    /*\r\n    status:\r\n    0: created by A\r\n    1: approved by A\r\n    2: approved by B\r\n    3: approved by C\r\n    4: confirmed by C\r\n    */\r\n\r\n    proposal[] public proposals;\r\n\r\n    function register(uint _party, string _username) public {\r\n        require(_party == 1 || _party == 2 || _party == 3);\r\n        partyOf[msg.sender] = _party;\r\n        usernames[msg.sender] = _username;\r\n    }\r\n    \r\n    function getProposalsCount() public view returns(uint) {\r\n        return proposals.length;\r\n    }\r\n\r\n    function create(string _title, string _content) public {\r\n        require(partyOf[msg.sender] == 1);\r\n        proposals.push(proposal(_title, _content, 1));\r\n        balanceOf[msg.sender] += 1;\r\n    }\r\n\r\n    function approve(uint _id, string _content) public {\r\n        // party A\r\n        if (proposals[_id].status == 0) {\r\n            require(partyOf[msg.sender] == 1);\r\n            proposals[_id].status = 1;\r\n        }\r\n        // party B\r\n        else if (proposals[_id].status == 1) {\r\n            require(partyOf[msg.sender] == 2);\r\n            proposals[_id].status = 2;\r\n        }\r\n        // party C\r\n        else if (proposals[_id].status == 2) {\r\n            require(partyOf[msg.sender] == 3);\r\n            proposals[_id].status = 3;\r\n        }\r\n        // confirm by party C\r\n        else if (proposals[_id].status == 3) {\r\n            require(partyOf[msg.sender] == 3);\r\n            proposals[_id].status = 4;\r\n        }\r\n\r\n        proposals[_id].content = _content;\r\n        balanceOf[msg.sender] += 1;\r\n    }\r\n\r\n    function disapprove(uint _id, string _content) public {\r\n        // party B\r\n        if (proposals[_id].status == 1) {\r\n            require(partyOf[msg.sender] == 2);\r\n            proposals[_id].status = 0;\r\n        }\r\n        // party C\r\n        if (proposals[_id].status == 2 || proposals[_id].status == 3) {\r\n            require(partyOf[msg.sender] == 3);\r\n            proposals[_id].status = 1;\r\n        }\r\n\r\n        proposals[_id].content = _content;\r\n        balanceOf[msg.sender] -= 1;\r\n    }\r\n}",
  "sourcePath": "C:\\Users\\LWY\\Desktop\\proposal-poc\\contracts\\Proposal.sol",
  "compiler": {
    "name": "solc",
    "version": "0.4.24+commit.e67f0147.Emscripten.clang"
  },
  "schemaVersion": "2.0.1",
  "updatedAt": "2018-11-13T16:44:26.967Z"
}